{
  "_format": "hh-sol-artifact-1",
  "contractName": "MintCars",
  "sourceName": "contracts/MintCars.sol",
  "abi": [
    {
      "inputs": [
        {
          "internalType": "string",
          "name": "name_",
          "type": "string"
        },
        {
          "internalType": "string",
          "name": "symbol_",
          "type": "string"
        }
      ],
      "stateMutability": "nonpayable",
      "type": "constructor"
    },
    {
      "anonymous": false,
      "inputs": [
        {
          "indexed": true,
          "internalType": "address",
          "name": "owner",
          "type": "address"
        },
        {
          "indexed": true,
          "internalType": "address",
          "name": "approved",
          "type": "address"
        },
        {
          "indexed": true,
          "internalType": "uint256",
          "name": "tokenId",
          "type": "uint256"
        }
      ],
      "name": "Approval",
      "type": "event"
    },
    {
      "anonymous": false,
      "inputs": [
        {
          "indexed": true,
          "internalType": "address",
          "name": "owner",
          "type": "address"
        },
        {
          "indexed": true,
          "internalType": "address",
          "name": "operator",
          "type": "address"
        },
        {
          "indexed": false,
          "internalType": "bool",
          "name": "approved",
          "type": "bool"
        }
      ],
      "name": "ApprovalForAll",
      "type": "event"
    },
    {
      "anonymous": false,
      "inputs": [
        {
          "indexed": true,
          "internalType": "address",
          "name": "previousOwner",
          "type": "address"
        },
        {
          "indexed": true,
          "internalType": "address",
          "name": "newOwner",
          "type": "address"
        }
      ],
      "name": "OwnershipTransferred",
      "type": "event"
    },
    {
      "anonymous": false,
      "inputs": [
        {
          "indexed": false,
          "internalType": "address",
          "name": "account",
          "type": "address"
        }
      ],
      "name": "Paused",
      "type": "event"
    },
    {
      "anonymous": false,
      "inputs": [
        {
          "indexed": true,
          "internalType": "address",
          "name": "from",
          "type": "address"
        },
        {
          "indexed": true,
          "internalType": "address",
          "name": "to",
          "type": "address"
        },
        {
          "indexed": true,
          "internalType": "uint256",
          "name": "tokenId",
          "type": "uint256"
        }
      ],
      "name": "Transfer",
      "type": "event"
    },
    {
      "anonymous": false,
      "inputs": [
        {
          "indexed": false,
          "internalType": "address",
          "name": "account",
          "type": "address"
        }
      ],
      "name": "Unpaused",
      "type": "event"
    },
    {
      "anonymous": false,
      "inputs": [
        {
          "indexed": false,
          "internalType": "uint256",
          "name": "newPrice",
          "type": "uint256"
        },
        {
          "indexed": false,
          "internalType": "uint256",
          "name": "Id",
          "type": "uint256"
        }
      ],
      "name": "priceChanged",
      "type": "event"
    },
    {
      "inputs": [
        {
          "internalType": "string",
          "name": "_tokenUri",
          "type": "string"
        },
        {
          "internalType": "uint256",
          "name": "_tokenPrice",
          "type": "uint256"
        }
      ],
      "name": "MintCarsNFT",
      "outputs": [
        {
          "internalType": "uint256",
          "name": "",
          "type": "uint256"
        }
      ],
      "stateMutability": "nonpayable",
      "type": "function"
    },
    {
      "inputs": [
        {
          "internalType": "address",
          "name": "to",
          "type": "address"
        },
        {
          "internalType": "uint256",
          "name": "tokenId",
          "type": "uint256"
        }
      ],
      "name": "approve",
      "outputs": [],
      "stateMutability": "nonpayable",
      "type": "function"
    },
    {
      "inputs": [
        {
          "internalType": "address",
          "name": "owner",
          "type": "address"
        }
      ],
      "name": "balanceOf",
      "outputs": [
        {
          "internalType": "uint256",
          "name": "",
          "type": "uint256"
        }
      ],
      "stateMutability": "view",
      "type": "function"
    },
    {
      "inputs": [
        {
          "internalType": "uint256",
          "name": "_tokenID",
          "type": "uint256"
        },
        {
          "internalType": "uint256",
          "name": "_newPrice",
          "type": "uint256"
        }
      ],
      "name": "changePrice",
      "outputs": [],
      "stateMutability": "nonpayable",
      "type": "function"
    },
    {
      "inputs": [
        {
          "internalType": "uint256",
          "name": "tokenId",
          "type": "uint256"
        }
      ],
      "name": "getApproved",
      "outputs": [
        {
          "internalType": "address",
          "name": "",
          "type": "address"
        }
      ],
      "stateMutability": "view",
      "type": "function"
    },
    {
      "inputs": [
        {
          "internalType": "address",
          "name": "owner",
          "type": "address"
        },
        {
          "internalType": "address",
          "name": "operator",
          "type": "address"
        }
      ],
      "name": "isApprovedForAll",
      "outputs": [
        {
          "internalType": "bool",
          "name": "",
          "type": "bool"
        }
      ],
      "stateMutability": "view",
      "type": "function"
    },
    {
      "inputs": [],
      "name": "name",
      "outputs": [
        {
          "internalType": "string",
          "name": "",
          "type": "string"
        }
      ],
      "stateMutability": "view",
      "type": "function"
    },
    {
      "inputs": [],
      "name": "owner",
      "outputs": [
        {
          "internalType": "address",
          "name": "",
          "type": "address"
        }
      ],
      "stateMutability": "view",
      "type": "function"
    },
    {
      "inputs": [
        {
          "internalType": "uint256",
          "name": "tokenId",
          "type": "uint256"
        }
      ],
      "name": "ownerOf",
      "outputs": [
        {
          "internalType": "address",
          "name": "",
          "type": "address"
        }
      ],
      "stateMutability": "view",
      "type": "function"
    },
    {
      "inputs": [],
      "name": "pauseMinting",
      "outputs": [],
      "stateMutability": "nonpayable",
      "type": "function"
    },
    {
      "inputs": [],
      "name": "paused",
      "outputs": [
        {
          "internalType": "bool",
          "name": "",
          "type": "bool"
        }
      ],
      "stateMutability": "view",
      "type": "function"
    },
    {
      "inputs": [],
      "name": "renounceOwnership",
      "outputs": [],
      "stateMutability": "nonpayable",
      "type": "function"
    },
    {
      "inputs": [
        {
          "internalType": "address",
          "name": "from",
          "type": "address"
        },
        {
          "internalType": "address",
          "name": "to",
          "type": "address"
        },
        {
          "internalType": "uint256",
          "name": "tokenId",
          "type": "uint256"
        }
      ],
      "name": "safeTransferFrom",
      "outputs": [],
      "stateMutability": "nonpayable",
      "type": "function"
    },
    {
      "inputs": [
        {
          "internalType": "address",
          "name": "from",
          "type": "address"
        },
        {
          "internalType": "address",
          "name": "to",
          "type": "address"
        },
        {
          "internalType": "uint256",
          "name": "tokenId",
          "type": "uint256"
        },
        {
          "internalType": "bytes",
          "name": "_data",
          "type": "bytes"
        }
      ],
      "name": "safeTransferFrom",
      "outputs": [],
      "stateMutability": "nonpayable",
      "type": "function"
    },
    {
      "inputs": [
        {
          "internalType": "address",
          "name": "operator",
          "type": "address"
        },
        {
          "internalType": "bool",
          "name": "approved",
          "type": "bool"
        }
      ],
      "name": "setApprovalForAll",
      "outputs": [],
      "stateMutability": "nonpayable",
      "type": "function"
    },
    {
      "inputs": [
        {
          "internalType": "bytes4",
          "name": "interfaceId",
          "type": "bytes4"
        }
      ],
      "name": "supportsInterface",
      "outputs": [
        {
          "internalType": "bool",
          "name": "",
          "type": "bool"
        }
      ],
      "stateMutability": "view",
      "type": "function"
    },
    {
      "inputs": [],
      "name": "symbol",
      "outputs": [
        {
          "internalType": "string",
          "name": "",
          "type": "string"
        }
      ],
      "stateMutability": "view",
      "type": "function"
    },
    {
      "inputs": [],
      "name": "tokenCounter",
      "outputs": [
        {
          "internalType": "uint256",
          "name": "",
          "type": "uint256"
        }
      ],
      "stateMutability": "view",
      "type": "function"
    },
    {
      "inputs": [
        {
          "internalType": "uint256",
          "name": "tokenId",
          "type": "uint256"
        }
      ],
      "name": "tokenURI",
      "outputs": [
        {
          "internalType": "string",
          "name": "",
          "type": "string"
        }
      ],
      "stateMutability": "view",
      "type": "function"
    },
    {
      "inputs": [
        {
          "internalType": "address",
          "name": "from",
          "type": "address"
        },
        {
          "internalType": "address",
          "name": "to",
          "type": "address"
        },
        {
          "internalType": "uint256",
          "name": "tokenId",
          "type": "uint256"
        }
      ],
      "name": "transferFrom",
      "outputs": [],
      "stateMutability": "nonpayable",
      "type": "function"
    },
    {
      "inputs": [
        {
          "internalType": "address",
          "name": "newOwner",
          "type": "address"
        }
      ],
      "name": "transferOwnership",
      "outputs": [],
      "stateMutability": "nonpayable",
      "type": "function"
    },
    {
      "inputs": [],
      "name": "unpauseMinting",
      "outputs": [],
      "stateMutability": "nonpayable",
      "type": "function"
    },
    {
      "inputs": [
        {
          "internalType": "uint256",
          "name": "_tokenID",
          "type": "uint256"
        }
      ],
      "name": "viewPrice",
      "outputs": [
        {
          "internalType": "uint256",
          "name": "",
          "type": "uint256"
        }
      ],
      "stateMutability": "view",
      "type": "function"
    }
  ],
  "bytecode": "0x60806040523480156200001157600080fd5b5060405162003952380380620039528339818101604052810190620000379190620002a6565b8181620000596200004d620000b860201b60201c565b620000c060201b60201c565b81600190805190602001906200007192919062000184565b5080600290805190602001906200008a92919062000184565b5050506000600860006101000a81548160ff021916908315150217905550600060098190555050506200044a565b600033905090565b60008060009054906101000a900473ffffffffffffffffffffffffffffffffffffffff169050816000806101000a81548173ffffffffffffffffffffffffffffffffffffffff021916908373ffffffffffffffffffffffffffffffffffffffff1602179055508173ffffffffffffffffffffffffffffffffffffffff168173ffffffffffffffffffffffffffffffffffffffff167f8be0079c531659141344cd1fd0a4f28419497f9722a3daafe3b4186f6b6457e060405160405180910390a35050565b8280546200019290620003b6565b90600052602060002090601f016020900481019282620001b6576000855562000202565b82601f10620001d157805160ff191683800117855562000202565b8280016001018555821562000202579182015b8281111562000201578251825591602001919060010190620001e4565b5b50905062000211919062000215565b5090565b5b808211156200023057600081600090555060010162000216565b5090565b60006200024b62000245846200034d565b62000319565b9050828152602081018484840111156200026457600080fd5b6200027184828562000380565b509392505050565b600082601f8301126200028b57600080fd5b81516200029d84826020860162000234565b91505092915050565b60008060408385031215620002ba57600080fd5b600083015167ffffffffffffffff811115620002d557600080fd5b620002e38582860162000279565b925050602083015167ffffffffffffffff8111156200030157600080fd5b6200030f8582860162000279565b9150509250929050565b6000604051905081810181811067ffffffffffffffff821117156200034357620003426200041b565b5b8060405250919050565b600067ffffffffffffffff8211156200036b576200036a6200041b565b5b601f19601f8301169050602081019050919050565b60005b83811015620003a057808201518184015260208101905062000383565b83811115620003b0576000848401525b50505050565b60006002820490506001821680620003cf57607f821691505b60208210811415620003e657620003e5620003ec565b5b50919050565b7f4e487b7100000000000000000000000000000000000000000000000000000000600052602260045260246000fd5b7f4e487b7100000000000000000000000000000000000000000000000000000000600052604160045260246000fd5b6134f8806200045a6000396000f3fe608060405234801561001057600080fd5b506004361061014d5760003560e01c806395d89b41116100c3578063c87b56dd1161007c578063c87b56dd14610376578063d082e381146103a6578063da8fbf2a146103c4578063e865579f146103ce578063e985e9c5146103fe578063f2fde38b1461042e5761014d565b806395d89b41146102ca578063a22cb465146102e8578063ae20032214610304578063afebdc171461030e578063b3de019c1461033e578063b88d4fde1461035a5761014d565b806342842e0e1161011557806342842e0e146102085780635c975abb146102245780636352211e1461024257806370a0823114610272578063715018a6146102a25780638da5cb5b146102ac5761014d565b806301ffc9a71461015257806306fdde0314610182578063081812fc146101a0578063095ea7b3146101d057806323b872dd146101ec575b600080fd5b61016c600480360381019061016791906123a7565b61044a565b6040516101799190612d87565b60405180910390f35b61018a61052c565b6040516101979190612da2565b60405180910390f35b6101ba60048036038101906101b5919061244d565b6105be565b6040516101c79190612d20565b60405180910390f35b6101ea60048036038101906101e5919061236b565b610643565b005b61020660048036038101906102019190612265565b61075b565b005b610222600480360381019061021d9190612265565b6107bb565b005b61022c6107db565b6040516102399190612d87565b60405180910390f35b61025c6004803603810190610257919061244d565b6107f2565b6040516102699190612d20565b60405180910390f35b61028c60048036038101906102879190612200565b6108a4565b6040516102999190613064565b60405180910390f35b6102aa61095c565b005b6102b46109e4565b6040516102c19190612d20565b60405180910390f35b6102d2610a0d565b6040516102df9190612da2565b60405180910390f35b61030260048036038101906102fd919061232f565b610a9f565b005b61030c610ab5565b005b610328600480360381019061032391906123f9565b610b3b565b6040516103359190613064565b60405180910390f35b61035860048036038101906103539190612476565b610bde565b005b610374600480360381019061036f91906122b4565b610cad565b005b610390600480360381019061038b919061244d565b610d0f565b60405161039d9190612da2565b60405180910390f35b6103ae610e61565b6040516103bb9190613064565b60405180910390f35b6103cc610e67565b005b6103e860048036038101906103e3919061244d565b610eed565b6040516103f59190613064565b60405180910390f35b61041860048036038101906104139190612229565b610f0a565b6040516104259190612d87565b60405180910390f35b61044860048036038101906104439190612200565b610f9e565b005b60007f80ac58cd000000000000000000000000000000000000000000000000000000007bffffffffffffffffffffffffffffffffffffffffffffffffffffffff1916827bffffffffffffffffffffffffffffffffffffffffffffffffffffffff1916148061051557507f5b5e139f000000000000000000000000000000000000000000000000000000007bffffffffffffffffffffffffffffffffffffffffffffffffffffffff1916827bffffffffffffffffffffffffffffffffffffffffffffffffffffffff1916145b80610525575061052482611096565b5b9050919050565b60606001805461053b906132ed565b80601f0160208091040260200160405190810160405280929190818152602001828054610567906132ed565b80156105b45780601f10610589576101008083540402835291602001916105b4565b820191906000526020600020905b81548152906001019060200180831161059757829003601f168201915b5050505050905090565b60006105c982611100565b610608576040517f08c379a00000000000000000000000000000000000000000000000000000000081526004016105ff90612f84565b60405180910390fd5b6005600083815260200190815260200160002060009054906101000a900473ffffffffffffffffffffffffffffffffffffffff169050919050565b600061064e826107f2565b90508073ffffffffffffffffffffffffffffffffffffffff168373ffffffffffffffffffffffffffffffffffffffff1614156106bf576040517f08c379a00000000000000000000000000000000000000000000000000000000081526004016106b690613024565b60405180910390fd5b8073ffffffffffffffffffffffffffffffffffffffff166106de61116c565b73ffffffffffffffffffffffffffffffffffffffff16148061070d575061070c8161070761116c565b610f0a565b5b61074c576040517f08c379a000000000000000000000000000000000000000000000000000000000815260040161074390612ec4565b60405180910390fd5b6107568383611174565b505050565b61076c61076661116c565b8261122d565b6107ab576040517f08c379a00000000000000000000000000000000000000000000000000000000081526004016107a290613044565b60405180910390fd5b6107b683838361130b565b505050565b6107d683838360405180602001604052806000815250610cad565b505050565b6000600860009054906101000a900460ff16905090565b6000806003600084815260200190815260200160002060009054906101000a900473ffffffffffffffffffffffffffffffffffffffff169050600073ffffffffffffffffffffffffffffffffffffffff168173ffffffffffffffffffffffffffffffffffffffff16141561089b576040517f08c379a000000000000000000000000000000000000000000000000000000000815260040161089290612f04565b60405180910390fd5b80915050919050565b60008073ffffffffffffffffffffffffffffffffffffffff168273ffffffffffffffffffffffffffffffffffffffff161415610915576040517f08c379a000000000000000000000000000000000000000000000000000000000815260040161090c90612ee4565b60405180910390fd5b600460008373ffffffffffffffffffffffffffffffffffffffff1673ffffffffffffffffffffffffffffffffffffffff168152602001908152602001600020549050919050565b61096461116c565b73ffffffffffffffffffffffffffffffffffffffff166109826109e4565b73ffffffffffffffffffffffffffffffffffffffff16146109d8576040517f08c379a00000000000000000000000000000000000000000000000000000000081526004016109cf90612fa4565b60405180910390fd5b6109e26000611567565b565b60008060009054906101000a900473ffffffffffffffffffffffffffffffffffffffff16905090565b606060028054610a1c906132ed565b80601f0160208091040260200160405190810160405280929190818152602001828054610a48906132ed565b8015610a955780601f10610a6a57610100808354040283529160200191610a95565b820191906000526020600020905b815481529060010190602001808311610a7857829003601f168201915b5050505050905090565b610ab1610aaa61116c565b838361162b565b5050565b610abd61116c565b73ffffffffffffffffffffffffffffffffffffffff16610adb6109e4565b73ffffffffffffffffffffffffffffffffffffffff1614610b31576040517f08c379a0000000000000000000000000000000000000000000000000000000008152600401610b2890612fa4565b60405180910390fd5b610b39611798565b565b6000610b456107db565b15610b85576040517f08c379a0000000000000000000000000000000000000000000000000000000008152600401610b7c90612ea4565b60405180910390fd5b60006009549050610b96338261183a565b610ba08185611858565b82600a600083815260200190815260200160002081905550610bce60016009546118cc90919063ffffffff16565b6009819055508091505092915050565b81338073ffffffffffffffffffffffffffffffffffffffff16610c00836107f2565b73ffffffffffffffffffffffffffffffffffffffff1614610c56576040517f08c379a0000000000000000000000000000000000000000000000000000000008152600401610c4d90613004565b60405180910390fd5b82600a6000868152602001908152602001600020819055507f1c796a1f0e72a2622b02269ab50e19623e96f80efeacd26bb98e7af2899cadc48385604051610c9f92919061307f565b60405180910390a150505050565b610cbe610cb861116c565b8361122d565b610cfd576040517f08c379a0000000000000000000000000000000000000000000000000000000008152600401610cf490613044565b60405180910390fd5b610d09848484846118e2565b50505050565b6060610d1a82611100565b610d59576040517f08c379a0000000000000000000000000000000000000000000000000000000008152600401610d5090612f64565b60405180910390fd5b6000600760008481526020019081526020016000208054610d79906132ed565b80601f0160208091040260200160405190810160405280929190818152602001828054610da5906132ed565b8015610df25780601f10610dc757610100808354040283529160200191610df2565b820191906000526020600020905b815481529060010190602001808311610dd557829003601f168201915b505050505090506000610e0361193e565b9050600081511415610e19578192505050610e5c565b600082511115610e4e578082604051602001610e36929190612cfc565b60405160208183030381529060405292505050610e5c565b610e5784611955565b925050505b919050565b60095481565b610e6f61116c565b73ffffffffffffffffffffffffffffffffffffffff16610e8d6109e4565b73ffffffffffffffffffffffffffffffffffffffff1614610ee3576040517f08c379a0000000000000000000000000000000000000000000000000000000008152600401610eda90612fa4565b60405180910390fd5b610eeb6119fc565b565b6000600a6000838152602001908152602001600020549050919050565b6000600660008473ffffffffffffffffffffffffffffffffffffffff1673ffffffffffffffffffffffffffffffffffffffff16815260200190815260200160002060008373ffffffffffffffffffffffffffffffffffffffff1673ffffffffffffffffffffffffffffffffffffffff16815260200190815260200160002060009054906101000a900460ff16905092915050565b610fa661116c565b73ffffffffffffffffffffffffffffffffffffffff16610fc46109e4565b73ffffffffffffffffffffffffffffffffffffffff161461101a576040517f08c379a000000000000000000000000000000000000000000000000000000000815260040161101190612fa4565b60405180910390fd5b600073ffffffffffffffffffffffffffffffffffffffff168173ffffffffffffffffffffffffffffffffffffffff16141561108a576040517f08c379a000000000000000000000000000000000000000000000000000000000815260040161108190612e04565b60405180910390fd5b61109381611567565b50565b60007f01ffc9a7000000000000000000000000000000000000000000000000000000007bffffffffffffffffffffffffffffffffffffffffffffffffffffffff1916827bffffffffffffffffffffffffffffffffffffffffffffffffffffffff1916149050919050565b60008073ffffffffffffffffffffffffffffffffffffffff166003600084815260200190815260200160002060009054906101000a900473ffffffffffffffffffffffffffffffffffffffff1673ffffffffffffffffffffffffffffffffffffffff1614159050919050565b600033905090565b816005600083815260200190815260200160002060006101000a81548173ffffffffffffffffffffffffffffffffffffffff021916908373ffffffffffffffffffffffffffffffffffffffff160217905550808273ffffffffffffffffffffffffffffffffffffffff166111e7836107f2565b73ffffffffffffffffffffffffffffffffffffffff167f8c5be1e5ebec7d5bd14f71427d1e84f3dd0314c0f7b2291e5b200ac8c7c3b92560405160405180910390a45050565b600061123882611100565b611277576040517f08c379a000000000000000000000000000000000000000000000000000000000815260040161126e90612e84565b60405180910390fd5b6000611282836107f2565b90508073ffffffffffffffffffffffffffffffffffffffff168473ffffffffffffffffffffffffffffffffffffffff1614806112f157508373ffffffffffffffffffffffffffffffffffffffff166112d9846105be565b73ffffffffffffffffffffffffffffffffffffffff16145b8061130257506113018185610f0a565b5b91505092915050565b8273ffffffffffffffffffffffffffffffffffffffff1661132b826107f2565b73ffffffffffffffffffffffffffffffffffffffff1614611381576040517f08c379a000000000000000000000000000000000000000000000000000000000815260040161137890612fc4565b60405180910390fd5b600073ffffffffffffffffffffffffffffffffffffffff168273ffffffffffffffffffffffffffffffffffffffff1614156113f1576040517f08c379a00000000000000000000000000000000000000000000000000000000081526004016113e890612e44565b60405180910390fd5b6113fc838383611a9f565b611407600082611174565b6001600460008573ffffffffffffffffffffffffffffffffffffffff1673ffffffffffffffffffffffffffffffffffffffff16815260200190815260200160002060008282546114579190613203565b925050819055506001600460008473ffffffffffffffffffffffffffffffffffffffff1673ffffffffffffffffffffffffffffffffffffffff16815260200190815260200160002060008282546114ae919061317c565b92505081905550816003600083815260200190815260200160002060006101000a81548173ffffffffffffffffffffffffffffffffffffffff021916908373ffffffffffffffffffffffffffffffffffffffff160217905550808273ffffffffffffffffffffffffffffffffffffffff168473ffffffffffffffffffffffffffffffffffffffff167fddf252ad1be2c89b69c2b068fc378daa952ba7f163c4a11628f55a4df523b3ef60405160405180910390a4505050565b60008060009054906101000a900473ffffffffffffffffffffffffffffffffffffffff169050816000806101000a81548173ffffffffffffffffffffffffffffffffffffffff021916908373ffffffffffffffffffffffffffffffffffffffff1602179055508173ffffffffffffffffffffffffffffffffffffffff168173ffffffffffffffffffffffffffffffffffffffff167f8be0079c531659141344cd1fd0a4f28419497f9722a3daafe3b4186f6b6457e060405160405180910390a35050565b8173ffffffffffffffffffffffffffffffffffffffff168373ffffffffffffffffffffffffffffffffffffffff16141561169a576040517f08c379a000000000000000000000000000000000000000000000000000000000815260040161169190612e64565b60405180910390fd5b80600660008573ffffffffffffffffffffffffffffffffffffffff1673ffffffffffffffffffffffffffffffffffffffff16815260200190815260200160002060008473ffffffffffffffffffffffffffffffffffffffff1673ffffffffffffffffffffffffffffffffffffffff16815260200190815260200160002060006101000a81548160ff0219169083151502179055508173ffffffffffffffffffffffffffffffffffffffff168373ffffffffffffffffffffffffffffffffffffffff167f17307eab39ab6107e8899845ad3d59bd9653f200f220920489ca2b5937696c318360405161178b9190612d87565b60405180910390a3505050565b6117a06107db565b6117df576040517f08c379a00000000000000000000000000000000000000000000000000000000081526004016117d690612dc4565b60405180910390fd5b6000600860006101000a81548160ff0219169083151502179055507f5db9ee0a495bf2e6ff9c91a7834c1ba4fdd244a5e8aa4e537bd38aeae4b073aa61182361116c565b6040516118309190612d20565b60405180910390a1565b611854828260405180602001604052806000815250611aa4565b5050565b61186182611100565b6118a0576040517f08c379a000000000000000000000000000000000000000000000000000000000815260040161189790612f24565b60405180910390fd5b806007600084815260200190815260200160002090805190602001906118c7929190612024565b505050565b600081836118da919061317c565b905092915050565b6118ed84848461130b565b6118f984848484611aff565b611938576040517f08c379a000000000000000000000000000000000000000000000000000000000815260040161192f90612de4565b60405180910390fd5b50505050565b606060405180602001604052806000815250905090565b606061196082611100565b61199f576040517f08c379a000000000000000000000000000000000000000000000000000000000815260040161199690612fe4565b60405180910390fd5b60006119a961193e565b905060008151116119c957604051806020016040528060008152506119f4565b806119d384611c96565b6040516020016119e4929190612cfc565b6040516020818303038152906040525b915050919050565b611a046107db565b15611a44576040517f08c379a0000000000000000000000000000000000000000000000000000000008152600401611a3b90612ea4565b60405180910390fd5b6001600860006101000a81548160ff0219169083151502179055507f62e78cea01bee320cd4e420270b5ea74000d11b0c9f74754ebdbfc544b05a258611a8861116c565b604051611a959190612d20565b60405180910390a1565b505050565b611aae8383611e43565b611abb6000848484611aff565b611afa576040517f08c379a0000000000000000000000000000000000000000000000000000000008152600401611af190612de4565b60405180910390fd5b505050565b6000611b208473ffffffffffffffffffffffffffffffffffffffff16612011565b15611c89578373ffffffffffffffffffffffffffffffffffffffff1663150b7a02611b4961116c565b8786866040518563ffffffff1660e01b8152600401611b6b9493929190612d3b565b602060405180830381600087803b158015611b8557600080fd5b505af1925050508015611bb657506040513d601f19601f82011682018060405250810190611bb391906123d0565b60015b611c39573d8060008114611be6576040519150601f19603f3d011682016040523d82523d6000602084013e611beb565b606091505b50600081511415611c31576040517f08c379a0000000000000000000000000000000000000000000000000000000008152600401611c2890612de4565b60405180910390fd5b805181602001fd5b63150b7a0260e01b7bffffffffffffffffffffffffffffffffffffffffffffffffffffffff1916817bffffffffffffffffffffffffffffffffffffffffffffffffffffffff191614915050611c8e565b600190505b949350505050565b60606000821415611cde576040518060400160405280600181526020017f30000000000000000000000000000000000000000000000000000000000000008152509050611e3e565b600082905060005b60008214611d10578080611cf99061331f565b915050600a82611d0991906131d2565b9150611ce6565b60008167ffffffffffffffff811115611d52577f4e487b7100000000000000000000000000000000000000000000000000000000600052604160045260246000fd5b6040519080825280601f01601f191660200182016040528015611d845781602001600182028036833780820191505090505b5090505b60008514611e3757600182611d9d9190613203565b9150600a85611dac9190613368565b6030611db8919061317c565b60f81b818381518110611df4577f4e487b7100000000000000000000000000000000000000000000000000000000600052603260045260246000fd5b60200101907effffffffffffffffffffffffffffffffffffffffffffffffffffffffffffff1916908160001a905350600a85611e3091906131d2565b9450611d88565b8093505050505b919050565b600073ffffffffffffffffffffffffffffffffffffffff168273ffffffffffffffffffffffffffffffffffffffff161415611eb3576040517f08c379a0000000000000000000000000000000000000000000000000000000008152600401611eaa90612f44565b60405180910390fd5b611ebc81611100565b15611efc576040517f08c379a0000000000000000000000000000000000000000000000000000000008152600401611ef390612e24565b60405180910390fd5b611f0860008383611a9f565b6001600460008473ffffffffffffffffffffffffffffffffffffffff1673ffffffffffffffffffffffffffffffffffffffff1681526020019081526020016000206000828254611f58919061317c565b92505081905550816003600083815260200190815260200160002060006101000a81548173ffffffffffffffffffffffffffffffffffffffff021916908373ffffffffffffffffffffffffffffffffffffffff160217905550808273ffffffffffffffffffffffffffffffffffffffff16600073ffffffffffffffffffffffffffffffffffffffff167fddf252ad1be2c89b69c2b068fc378daa952ba7f163c4a11628f55a4df523b3ef60405160405180910390a45050565b600080823b905060008111915050919050565b828054612030906132ed565b90600052602060002090601f0160209004810192826120525760008555612099565b82601f1061206b57805160ff1916838001178555612099565b82800160010185558215612099579182015b8281111561209857825182559160200191906001019061207d565b5b5090506120a691906120aa565b5090565b5b808211156120c35760008160009055506001016120ab565b5090565b60006120da6120d5846130d9565b6130a8565b9050828152602081018484840111156120f257600080fd5b6120fd8482856132ab565b509392505050565b600061211861211384613109565b6130a8565b90508281526020810184848401111561213057600080fd5b61213b8482856132ab565b509392505050565b60008135905061215281613466565b92915050565b6000813590506121678161347d565b92915050565b60008135905061217c81613494565b92915050565b60008151905061219181613494565b92915050565b600082601f8301126121a857600080fd5b81356121b88482602086016120c7565b91505092915050565b600082601f8301126121d257600080fd5b81356121e2848260208601612105565b91505092915050565b6000813590506121fa816134ab565b92915050565b60006020828403121561221257600080fd5b600061222084828501612143565b91505092915050565b6000806040838503121561223c57600080fd5b600061224a85828601612143565b925050602061225b85828601612143565b9150509250929050565b60008060006060848603121561227a57600080fd5b600061228886828701612143565b935050602061229986828701612143565b92505060406122aa868287016121eb565b9150509250925092565b600080600080608085870312156122ca57600080fd5b60006122d887828801612143565b94505060206122e987828801612143565b93505060406122fa878288016121eb565b925050606085013567ffffffffffffffff81111561231757600080fd5b61232387828801612197565b91505092959194509250565b6000806040838503121561234257600080fd5b600061235085828601612143565b925050602061236185828601612158565b9150509250929050565b6000806040838503121561237e57600080fd5b600061238c85828601612143565b925050602061239d858286016121eb565b9150509250929050565b6000602082840312156123b957600080fd5b60006123c78482850161216d565b91505092915050565b6000602082840312156123e257600080fd5b60006123f084828501612182565b91505092915050565b6000806040838503121561240c57600080fd5b600083013567ffffffffffffffff81111561242657600080fd5b612432858286016121c1565b9250506020612443858286016121eb565b9150509250929050565b60006020828403121561245f57600080fd5b600061246d848285016121eb565b91505092915050565b6000806040838503121561248957600080fd5b6000612497858286016121eb565b92505060206124a8858286016121eb565b9150509250929050565b6124bb81613237565b82525050565b6124ca81613249565b82525050565b60006124db82613139565b6124e5818561314f565b93506124f58185602086016132ba565b6124fe81613455565b840191505092915050565b600061251482613144565b61251e8185613160565b935061252e8185602086016132ba565b61253781613455565b840191505092915050565b600061254d82613144565b6125578185613171565b93506125678185602086016132ba565b80840191505092915050565b6000612580601483613160565b91507f5061757361626c653a206e6f74207061757365640000000000000000000000006000830152602082019050919050565b60006125c0603283613160565b91507f4552433732313a207472616e7366657220746f206e6f6e20455243373231526560008301527f63656976657220696d706c656d656e74657200000000000000000000000000006020830152604082019050919050565b6000612626602683613160565b91507f4f776e61626c653a206e6577206f776e657220697320746865207a65726f206160008301527f64647265737300000000000000000000000000000000000000000000000000006020830152604082019050919050565b600061268c601c83613160565b91507f4552433732313a20746f6b656e20616c7265616479206d696e746564000000006000830152602082019050919050565b60006126cc602483613160565b91507f4552433732313a207472616e7366657220746f20746865207a65726f2061646460008301527f72657373000000000000000000000000000000000000000000000000000000006020830152604082019050919050565b6000612732601983613160565b91507f4552433732313a20617070726f766520746f2063616c6c6572000000000000006000830152602082019050919050565b6000612772602c83613160565b91507f4552433732313a206f70657261746f7220717565727920666f72206e6f6e657860008301527f697374656e7420746f6b656e00000000000000000000000000000000000000006020830152604082019050919050565b60006127d8601083613160565b91507f5061757361626c653a20706175736564000000000000000000000000000000006000830152602082019050919050565b6000612818603883613160565b91507f4552433732313a20617070726f76652063616c6c6572206973206e6f74206f7760008301527f6e6572206e6f7220617070726f76656420666f7220616c6c00000000000000006020830152604082019050919050565b600061287e602a83613160565b91507f4552433732313a2062616c616e636520717565727920666f7220746865207a6560008301527f726f2061646472657373000000000000000000000000000000000000000000006020830152604082019050919050565b60006128e4602983613160565b91507f4552433732313a206f776e657220717565727920666f72206e6f6e657869737460008301527f656e7420746f6b656e00000000000000000000000000000000000000000000006020830152604082019050919050565b600061294a602e83613160565b91507f45524337323155524953746f726167653a2055524920736574206f66206e6f6e60008301527f6578697374656e7420746f6b656e0000000000000000000000000000000000006020830152604082019050919050565b60006129b0602083613160565b91507f4552433732313a206d696e7420746f20746865207a65726f20616464726573736000830152602082019050919050565b60006129f0603183613160565b91507f45524337323155524953746f726167653a2055524920717565727920666f722060008301527f6e6f6e6578697374656e7420746f6b656e0000000000000000000000000000006020830152604082019050919050565b6000612a56602c83613160565b91507f4552433732313a20617070726f76656420717565727920666f72206e6f6e657860008301527f697374656e7420746f6b656e00000000000000000000000000000000000000006020830152604082019050919050565b6000612abc602083613160565b91507f4f776e61626c653a2063616c6c6572206973206e6f7420746865206f776e65726000830152602082019050919050565b6000612afc602983613160565b91507f4552433732313a207472616e73666572206f6620746f6b656e2074686174206960008301527f73206e6f74206f776e00000000000000000000000000000000000000000000006020830152604082019050919050565b6000612b62602f83613160565b91507f4552433732314d657461646174613a2055524920717565727920666f72206e6f60008301527f6e6578697374656e7420746f6b656e00000000000000000000000000000000006020830152604082019050919050565b6000612bc8602e83613160565b91507f4572726f72203a204f6e6c79204f776e6572206f66204e46542063616e20636860008301527f616e6765204e46542070726963650000000000000000000000000000000000006020830152604082019050919050565b6000612c2e602183613160565b91507f4552433732313a20617070726f76616c20746f2063757272656e74206f776e6560008301527f72000000000000000000000000000000000000000000000000000000000000006020830152604082019050919050565b6000612c94603183613160565b91507f4552433732313a207472616e736665722063616c6c6572206973206e6f74206f60008301527f776e6572206e6f7220617070726f7665640000000000000000000000000000006020830152604082019050919050565b612cf6816132a1565b82525050565b6000612d088285612542565b9150612d148284612542565b91508190509392505050565b6000602082019050612d3560008301846124b2565b92915050565b6000608082019050612d5060008301876124b2565b612d5d60208301866124b2565b612d6a6040830185612ced565b8181036060830152612d7c81846124d0565b905095945050505050565b6000602082019050612d9c60008301846124c1565b92915050565b60006020820190508181036000830152612dbc8184612509565b905092915050565b60006020820190508181036000830152612ddd81612573565b9050919050565b60006020820190508181036000830152612dfd816125b3565b9050919050565b60006020820190508181036000830152612e1d81612619565b9050919050565b60006020820190508181036000830152612e3d8161267f565b9050919050565b60006020820190508181036000830152612e5d816126bf565b9050919050565b60006020820190508181036000830152612e7d81612725565b9050919050565b60006020820190508181036000830152612e9d81612765565b9050919050565b60006020820190508181036000830152612ebd816127cb565b9050919050565b60006020820190508181036000830152612edd8161280b565b9050919050565b60006020820190508181036000830152612efd81612871565b9050919050565b60006020820190508181036000830152612f1d816128d7565b9050919050565b60006020820190508181036000830152612f3d8161293d565b9050919050565b60006020820190508181036000830152612f5d816129a3565b9050919050565b60006020820190508181036000830152612f7d816129e3565b9050919050565b60006020820190508181036000830152612f9d81612a49565b9050919050565b60006020820190508181036000830152612fbd81612aaf565b9050919050565b60006020820190508181036000830152612fdd81612aef565b9050919050565b60006020820190508181036000830152612ffd81612b55565b9050919050565b6000602082019050818103600083015261301d81612bbb565b9050919050565b6000602082019050818103600083015261303d81612c21565b9050919050565b6000602082019050818103600083015261305d81612c87565b9050919050565b60006020820190506130796000830184612ced565b92915050565b60006040820190506130946000830185612ced565b6130a16020830184612ced565b9392505050565b6000604051905081810181811067ffffffffffffffff821117156130cf576130ce613426565b5b8060405250919050565b600067ffffffffffffffff8211156130f4576130f3613426565b5b601f19601f8301169050602081019050919050565b600067ffffffffffffffff82111561312457613123613426565b5b601f19601f8301169050602081019050919050565b600081519050919050565b600081519050919050565b600082825260208201905092915050565b600082825260208201905092915050565b600081905092915050565b6000613187826132a1565b9150613192836132a1565b9250827fffffffffffffffffffffffffffffffffffffffffffffffffffffffffffffffff038211156131c7576131c6613399565b5b828201905092915050565b60006131dd826132a1565b91506131e8836132a1565b9250826131f8576131f76133c8565b5b828204905092915050565b600061320e826132a1565b9150613219836132a1565b92508282101561322c5761322b613399565b5b828203905092915050565b600061324282613281565b9050919050565b60008115159050919050565b60007fffffffff0000000000000000000000000000000000000000000000000000000082169050919050565b600073ffffffffffffffffffffffffffffffffffffffff82169050919050565b6000819050919050565b82818337600083830152505050565b60005b838110156132d85780820151818401526020810190506132bd565b838111156132e7576000848401525b50505050565b6000600282049050600182168061330557607f821691505b60208210811415613319576133186133f7565b5b50919050565b600061332a826132a1565b91507fffffffffffffffffffffffffffffffffffffffffffffffffffffffffffffffff82141561335d5761335c613399565b5b600182019050919050565b6000613373826132a1565b915061337e836132a1565b92508261338e5761338d6133c8565b5b828206905092915050565b7f4e487b7100000000000000000000000000000000000000000000000000000000600052601160045260246000fd5b7f4e487b7100000000000000000000000000000000000000000000000000000000600052601260045260246000fd5b7f4e487b7100000000000000000000000000000000000000000000000000000000600052602260045260246000fd5b7f4e487b7100000000000000000000000000000000000000000000000000000000600052604160045260246000fd5b6000601f19601f8301169050919050565b61346f81613237565b811461347a57600080fd5b50565b61348681613249565b811461349157600080fd5b50565b61349d81613255565b81146134a857600080fd5b50565b6134b4816132a1565b81146134bf57600080fd5b5056fea264697066735822122037551590a32129934f3ae97fc36c0fa41812e475bd16c834adae091e9c26f89064736f6c63430008000033",
  "linkReferences": {},
  "deployedLinkReferences": {}
}