{
  "_format": "hh-sol-artifact-1",
  "contractName": "TradeCars",
  "sourceName": "contracts/TradeCars.sol",
  "abi": [
    {
      "inputs": [
        {
          "internalType": "string",
          "name": "name_",
          "type": "string"
        },
        {
          "internalType": "string",
          "name": "symbol_",
          "type": "string"
        }
      ],
      "stateMutability": "nonpayable",
      "type": "constructor"
    },
    {
      "anonymous": false,
      "inputs": [
        {
          "indexed": true,
          "internalType": "address",
          "name": "owner",
          "type": "address"
        },
        {
          "indexed": true,
          "internalType": "address",
          "name": "approved",
          "type": "address"
        },
        {
          "indexed": true,
          "internalType": "uint256",
          "name": "tokenId",
          "type": "uint256"
        }
      ],
      "name": "Approval",
      "type": "event"
    },
    {
      "anonymous": false,
      "inputs": [
        {
          "indexed": true,
          "internalType": "address",
          "name": "owner",
          "type": "address"
        },
        {
          "indexed": true,
          "internalType": "address",
          "name": "operator",
          "type": "address"
        },
        {
          "indexed": false,
          "internalType": "bool",
          "name": "approved",
          "type": "bool"
        }
      ],
      "name": "ApprovalForAll",
      "type": "event"
    },
    {
      "anonymous": false,
      "inputs": [
        {
          "indexed": true,
          "internalType": "address",
          "name": "previousOwner",
          "type": "address"
        },
        {
          "indexed": true,
          "internalType": "address",
          "name": "newOwner",
          "type": "address"
        }
      ],
      "name": "OwnershipTransferred",
      "type": "event"
    },
    {
      "anonymous": false,
      "inputs": [
        {
          "indexed": false,
          "internalType": "address",
          "name": "account",
          "type": "address"
        }
      ],
      "name": "Paused",
      "type": "event"
    },
    {
      "anonymous": false,
      "inputs": [
        {
          "indexed": true,
          "internalType": "address",
          "name": "from",
          "type": "address"
        },
        {
          "indexed": true,
          "internalType": "address",
          "name": "to",
          "type": "address"
        },
        {
          "indexed": true,
          "internalType": "uint256",
          "name": "tokenId",
          "type": "uint256"
        }
      ],
      "name": "Transfer",
      "type": "event"
    },
    {
      "anonymous": false,
      "inputs": [
        {
          "indexed": false,
          "internalType": "address",
          "name": "account",
          "type": "address"
        }
      ],
      "name": "Unpaused",
      "type": "event"
    },
    {
      "anonymous": false,
      "inputs": [
        {
          "indexed": false,
          "internalType": "uint256",
          "name": "newPrice",
          "type": "uint256"
        },
        {
          "indexed": false,
          "internalType": "uint256",
          "name": "Id",
          "type": "uint256"
        }
      ],
      "name": "priceChanged",
      "type": "event"
    },
    {
      "anonymous": false,
      "inputs": [
        {
          "indexed": false,
          "internalType": "address",
          "name": "owner",
          "type": "address"
        },
        {
          "indexed": false,
          "internalType": "uint256",
          "name": "price",
          "type": "uint256"
        },
        {
          "indexed": false,
          "internalType": "uint256",
          "name": "tokenId",
          "type": "uint256"
        },
        {
          "indexed": false,
          "internalType": "string",
          "name": "uri",
          "type": "string"
        }
      ],
      "name": "purchased",
      "type": "event"
    },
    {
      "stateMutability": "payable",
      "type": "fallback"
    },
    {
      "inputs": [
        {
          "internalType": "uint256",
          "name": "_tokenId",
          "type": "uint256"
        }
      ],
      "name": "BuyCarsNFT",
      "outputs": [],
      "stateMutability": "payable",
      "type": "function"
    },
    {
      "inputs": [
        {
          "internalType": "address payable",
          "name": "_addressToWithdraw",
          "type": "address"
        }
      ],
      "name": "CloseContract",
      "outputs": [],
      "stateMutability": "nonpayable",
      "type": "function"
    },
    {
      "inputs": [
        {
          "internalType": "string",
          "name": "_tokenUri",
          "type": "string"
        },
        {
          "internalType": "uint256",
          "name": "_tokenPrice",
          "type": "uint256"
        }
      ],
      "name": "MintCarsNFT",
      "outputs": [
        {
          "internalType": "uint256",
          "name": "",
          "type": "uint256"
        }
      ],
      "stateMutability": "nonpayable",
      "type": "function"
    },
    {
      "inputs": [
        {
          "internalType": "address",
          "name": "to",
          "type": "address"
        },
        {
          "internalType": "uint256",
          "name": "tokenId",
          "type": "uint256"
        }
      ],
      "name": "approve",
      "outputs": [],
      "stateMutability": "nonpayable",
      "type": "function"
    },
    {
      "inputs": [
        {
          "internalType": "address",
          "name": "owner",
          "type": "address"
        }
      ],
      "name": "balanceOf",
      "outputs": [
        {
          "internalType": "uint256",
          "name": "",
          "type": "uint256"
        }
      ],
      "stateMutability": "view",
      "type": "function"
    },
    {
      "inputs": [
        {
          "internalType": "uint256",
          "name": "_tokenID",
          "type": "uint256"
        },
        {
          "internalType": "uint256",
          "name": "_newPrice",
          "type": "uint256"
        }
      ],
      "name": "changePrice",
      "outputs": [],
      "stateMutability": "nonpayable",
      "type": "function"
    },
    {
      "inputs": [
        {
          "internalType": "address payable",
          "name": "_newTaxAddress",
          "type": "address"
        }
      ],
      "name": "changeTaxAddress",
      "outputs": [],
      "stateMutability": "nonpayable",
      "type": "function"
    },
    {
      "inputs": [
        {
          "internalType": "uint256",
          "name": "_newTaxPercent",
          "type": "uint256"
        }
      ],
      "name": "changeTaxPercent",
      "outputs": [],
      "stateMutability": "nonpayable",
      "type": "function"
    },
    {
      "inputs": [
        {
          "internalType": "uint256",
          "name": "tokenId",
          "type": "uint256"
        }
      ],
      "name": "getApproved",
      "outputs": [
        {
          "internalType": "address",
          "name": "",
          "type": "address"
        }
      ],
      "stateMutability": "view",
      "type": "function"
    },
    {
      "inputs": [
        {
          "internalType": "address",
          "name": "owner",
          "type": "address"
        },
        {
          "internalType": "address",
          "name": "operator",
          "type": "address"
        }
      ],
      "name": "isApprovedForAll",
      "outputs": [
        {
          "internalType": "bool",
          "name": "",
          "type": "bool"
        }
      ],
      "stateMutability": "view",
      "type": "function"
    },
    {
      "inputs": [],
      "name": "name",
      "outputs": [
        {
          "internalType": "string",
          "name": "",
          "type": "string"
        }
      ],
      "stateMutability": "view",
      "type": "function"
    },
    {
      "inputs": [],
      "name": "owner",
      "outputs": [
        {
          "internalType": "address",
          "name": "",
          "type": "address"
        }
      ],
      "stateMutability": "view",
      "type": "function"
    },
    {
      "inputs": [
        {
          "internalType": "uint256",
          "name": "tokenId",
          "type": "uint256"
        }
      ],
      "name": "ownerOf",
      "outputs": [
        {
          "internalType": "address",
          "name": "",
          "type": "address"
        }
      ],
      "stateMutability": "view",
      "type": "function"
    },
    {
      "inputs": [],
      "name": "pauseMinting",
      "outputs": [],
      "stateMutability": "nonpayable",
      "type": "function"
    },
    {
      "inputs": [],
      "name": "paused",
      "outputs": [
        {
          "internalType": "bool",
          "name": "",
          "type": "bool"
        }
      ],
      "stateMutability": "view",
      "type": "function"
    },
    {
      "inputs": [],
      "name": "platformTaxFee",
      "outputs": [
        {
          "internalType": "uint256",
          "name": "",
          "type": "uint256"
        }
      ],
      "stateMutability": "view",
      "type": "function"
    },
    {
      "inputs": [],
      "name": "renounceOwnership",
      "outputs": [],
      "stateMutability": "nonpayable",
      "type": "function"
    },
    {
      "inputs": [
        {
          "internalType": "address",
          "name": "from",
          "type": "address"
        },
        {
          "internalType": "address",
          "name": "to",
          "type": "address"
        },
        {
          "internalType": "uint256",
          "name": "tokenId",
          "type": "uint256"
        }
      ],
      "name": "safeTransferFrom",
      "outputs": [],
      "stateMutability": "nonpayable",
      "type": "function"
    },
    {
      "inputs": [
        {
          "internalType": "address",
          "name": "from",
          "type": "address"
        },
        {
          "internalType": "address",
          "name": "to",
          "type": "address"
        },
        {
          "internalType": "uint256",
          "name": "tokenId",
          "type": "uint256"
        },
        {
          "internalType": "bytes",
          "name": "_data",
          "type": "bytes"
        }
      ],
      "name": "safeTransferFrom",
      "outputs": [],
      "stateMutability": "nonpayable",
      "type": "function"
    },
    {
      "inputs": [
        {
          "internalType": "address",
          "name": "operator",
          "type": "address"
        },
        {
          "internalType": "bool",
          "name": "approved",
          "type": "bool"
        }
      ],
      "name": "setApprovalForAll",
      "outputs": [],
      "stateMutability": "nonpayable",
      "type": "function"
    },
    {
      "inputs": [
        {
          "internalType": "uint256",
          "name": "",
          "type": "uint256"
        }
      ],
      "name": "sold",
      "outputs": [
        {
          "internalType": "bool",
          "name": "",
          "type": "bool"
        }
      ],
      "stateMutability": "view",
      "type": "function"
    },
    {
      "inputs": [
        {
          "internalType": "bytes4",
          "name": "interfaceId",
          "type": "bytes4"
        }
      ],
      "name": "supportsInterface",
      "outputs": [
        {
          "internalType": "bool",
          "name": "",
          "type": "bool"
        }
      ],
      "stateMutability": "view",
      "type": "function"
    },
    {
      "inputs": [],
      "name": "symbol",
      "outputs": [
        {
          "internalType": "string",
          "name": "",
          "type": "string"
        }
      ],
      "stateMutability": "view",
      "type": "function"
    },
    {
      "inputs": [],
      "name": "tokenCounter",
      "outputs": [
        {
          "internalType": "uint256",
          "name": "",
          "type": "uint256"
        }
      ],
      "stateMutability": "view",
      "type": "function"
    },
    {
      "inputs": [
        {
          "internalType": "uint256",
          "name": "tokenId",
          "type": "uint256"
        }
      ],
      "name": "tokenURI",
      "outputs": [
        {
          "internalType": "string",
          "name": "",
          "type": "string"
        }
      ],
      "stateMutability": "view",
      "type": "function"
    },
    {
      "inputs": [
        {
          "internalType": "address",
          "name": "from",
          "type": "address"
        },
        {
          "internalType": "address",
          "name": "to",
          "type": "address"
        },
        {
          "internalType": "uint256",
          "name": "tokenId",
          "type": "uint256"
        }
      ],
      "name": "transferFrom",
      "outputs": [],
      "stateMutability": "nonpayable",
      "type": "function"
    },
    {
      "inputs": [
        {
          "internalType": "address",
          "name": "newOwner",
          "type": "address"
        }
      ],
      "name": "transferOwnership",
      "outputs": [],
      "stateMutability": "nonpayable",
      "type": "function"
    },
    {
      "inputs": [
        {
          "internalType": "address payable",
          "name": "_addressToWithdraw",
          "type": "address"
        }
      ],
      "name": "transferToOwner",
      "outputs": [
        {
          "internalType": "uint256",
          "name": "",
          "type": "uint256"
        }
      ],
      "stateMutability": "nonpayable",
      "type": "function"
    },
    {
      "inputs": [],
      "name": "unpauseMinting",
      "outputs": [],
      "stateMutability": "nonpayable",
      "type": "function"
    },
    {
      "inputs": [],
      "name": "viewCurrentTaxAddress",
      "outputs": [
        {
          "internalType": "address",
          "name": "",
          "type": "address"
        }
      ],
      "stateMutability": "view",
      "type": "function"
    },
    {
      "inputs": [
        {
          "internalType": "uint256",
          "name": "_tokenID",
          "type": "uint256"
        }
      ],
      "name": "viewPrice",
      "outputs": [
        {
          "internalType": "uint256",
          "name": "",
          "type": "uint256"
        }
      ],
      "stateMutability": "view",
      "type": "function"
    },
    {
      "stateMutability": "payable",
      "type": "receive"
    }
  ],
  "bytecode": "0x60806040523480156200001157600080fd5b506040516200460a3803806200460a833981810160405281019062000037919062000307565b818181816200005b6200004f6200011960201b60201c565b6200012160201b60201c565b816001908051906020019062000073929190620001e5565b5080600290805190602001906200008c929190620001e5565b5050506000600860006101000a81548160ff0219169083151502179055506000600981905550505073bef33c394213bd8a240c16c86a03c76d7e7be1fa600c60006101000a81548173ffffffffffffffffffffffffffffffffffffffff021916908373ffffffffffffffffffffffffffffffffffffffff1602179055506005600b819055505050620004ab565b600033905090565b60008060009054906101000a900473ffffffffffffffffffffffffffffffffffffffff169050816000806101000a81548173ffffffffffffffffffffffffffffffffffffffff021916908373ffffffffffffffffffffffffffffffffffffffff1602179055508173ffffffffffffffffffffffffffffffffffffffff168173ffffffffffffffffffffffffffffffffffffffff167f8be0079c531659141344cd1fd0a4f28419497f9722a3daafe3b4186f6b6457e060405160405180910390a35050565b828054620001f39062000417565b90600052602060002090601f01602090048101928262000217576000855562000263565b82601f106200023257805160ff191683800117855562000263565b8280016001018555821562000263579182015b828111156200026257825182559160200191906001019062000245565b5b50905062000272919062000276565b5090565b5b808211156200029157600081600090555060010162000277565b5090565b6000620002ac620002a684620003ae565b6200037a565b905082815260208101848484011115620002c557600080fd5b620002d2848285620003e1565b509392505050565b600082601f830112620002ec57600080fd5b8151620002fe84826020860162000295565b91505092915050565b600080604083850312156200031b57600080fd5b600083015167ffffffffffffffff8111156200033657600080fd5b6200034485828601620002da565b925050602083015167ffffffffffffffff8111156200036257600080fd5b6200037085828601620002da565b9150509250929050565b6000604051905081810181811067ffffffffffffffff82111715620003a457620003a36200047c565b5b8060405250919050565b600067ffffffffffffffff821115620003cc57620003cb6200047c565b5b601f19601f8301169050602081019050919050565b60005b8381101562000401578082015181840152602081019050620003e4565b8381111562000411576000848401525b50505050565b600060028204905060018216806200043057607f821691505b602082108114156200044757620004466200044d565b5b50919050565b7f4e487b7100000000000000000000000000000000000000000000000000000000600052602260045260246000fd5b7f4e487b7100000000000000000000000000000000000000000000000000000000600052604160045260246000fd5b61414f80620004bb6000396000f3fe6080604052600436106101dc5760003560e01c80639c03facb11610102578063ca2fa43111610095578063e985e9c511610064578063e985e9c5146106b7578063f2fde38b146106f4578063fc06b26a1461071d578063fe66446f14610746576101e3565b8063ca2fa4311461060d578063d082e38114610638578063da8fbf2a14610663578063e865579f1461067a576101e3565b8063b3de019c116100d1578063b3de019c14610553578063b6f583ba1461057c578063b88d4fde146105a7578063c87b56dd146105d0576101e3565b80639c03facb14610499578063a22cb465146104d6578063ae200322146104ff578063afebdc1714610516576101e3565b80636352211e1161017a5780637dc93dac116101495780637dc93dac146103dd578063812d504d146104065780638da5cb5b1461044357806395d89b411461046e576101e3565b80636352211e146103305780636cd6ab461461036d57806370a0823114610389578063715018a6146103c6576101e3565b8063095ea7b3116101b6578063095ea7b31461028a57806323b872dd146102b357806342842e0e146102dc5780635c975abb14610305576101e3565b806301ffc9a7146101e557806306fdde0314610222578063081812fc1461024d576101e3565b366101e357005b005b3480156101f157600080fd5b5061020c60048036038101906102079190612e0f565b61076f565b60405161021991906138fb565b60405180910390f35b34801561022e57600080fd5b50610237610851565b6040516102449190613916565b60405180910390f35b34801561025957600080fd5b50610274600480360381019061026f9190612eb5565b6108e3565b6040516102819190613848565b60405180910390f35b34801561029657600080fd5b506102b160048036038101906102ac9190612dd3565b610968565b005b3480156102bf57600080fd5b506102da60048036038101906102d59190612ccd565b610a80565b005b3480156102e857600080fd5b5061030360048036038101906102fe9190612ccd565b610ae0565b005b34801561031157600080fd5b5061031a610b00565b60405161032791906138fb565b60405180910390f35b34801561033c57600080fd5b5061035760048036038101906103529190612eb5565b610b17565b6040516103649190613848565b60405180910390f35b61038760048036038101906103829190612eb5565b610bc9565b005b34801561039557600080fd5b506103b060048036038101906103ab9190612c3f565b610c36565b6040516103bd9190613c38565b60405180910390f35b3480156103d257600080fd5b506103db610cee565b005b3480156103e957600080fd5b5061040460048036038101906103ff9190612c68565b610d76565b005b34801561041257600080fd5b5061042d60048036038101906104289190612c68565b610e0b565b60405161043a9190613c38565b60405180910390f35b34801561044f57600080fd5b50610458610eef565b6040516104659190613848565b60405180910390f35b34801561047a57600080fd5b50610483610f18565b6040516104909190613916565b60405180910390f35b3480156104a557600080fd5b506104c060048036038101906104bb9190612eb5565b610faa565b6040516104cd91906138fb565b60405180910390f35b3480156104e257600080fd5b506104fd60048036038101906104f89190612d97565b610fca565b005b34801561050b57600080fd5b50610514610fe0565b005b34801561052257600080fd5b5061053d60048036038101906105389190612e61565b611066565b60405161054a9190613c38565b60405180910390f35b34801561055f57600080fd5b5061057a60048036038101906105759190612ede565b611109565b005b34801561058857600080fd5b506105916111d8565b60405161059e9190613c38565b60405180910390f35b3480156105b357600080fd5b506105ce60048036038101906105c99190612d1c565b6111de565b005b3480156105dc57600080fd5b506105f760048036038101906105f29190612eb5565b611240565b6040516106049190613916565b60405180910390f35b34801561061957600080fd5b50610622611392565b60405161062f9190613848565b60405180910390f35b34801561064457600080fd5b5061064d611438565b60405161065a9190613c38565b60405180910390f35b34801561066f57600080fd5b5061067861143e565b005b34801561068657600080fd5b506106a1600480360381019061069c9190612eb5565b6114c4565b6040516106ae9190613c38565b60405180910390f35b3480156106c357600080fd5b506106de60048036038101906106d99190612c91565b6114e1565b6040516106eb91906138fb565b60405180910390f35b34801561070057600080fd5b5061071b60048036038101906107169190612c3f565b611575565b005b34801561072957600080fd5b50610744600480360381019061073f9190612eb5565b61166d565b005b34801561075257600080fd5b5061076d60048036038101906107689190612c68565b6116f3565b005b60007f80ac58cd000000000000000000000000000000000000000000000000000000007bffffffffffffffffffffffffffffffffffffffffffffffffffffffff1916827bffffffffffffffffffffffffffffffffffffffffffffffffffffffff1916148061083a57507f5b5e139f000000000000000000000000000000000000000000000000000000007bffffffffffffffffffffffffffffffffffffffffffffffffffffffff1916827bffffffffffffffffffffffffffffffffffffffffffffffffffffffff1916145b8061084a5750610849826117b3565b5b9050919050565b60606001805461086090613f2d565b80601f016020809104026020016040519081016040528092919081815260200182805461088c90613f2d565b80156108d95780601f106108ae576101008083540402835291602001916108d9565b820191906000526020600020905b8154815290600101906020018083116108bc57829003601f168201915b5050505050905090565b60006108ee8261181d565b61092d576040517f08c379a000000000000000000000000000000000000000000000000000000000815260040161092490613b38565b60405180910390fd5b6005600083815260200190815260200160002060009054906101000a900473ffffffffffffffffffffffffffffffffffffffff169050919050565b600061097382610b17565b90508073ffffffffffffffffffffffffffffffffffffffff168373ffffffffffffffffffffffffffffffffffffffff1614156109e4576040517f08c379a00000000000000000000000000000000000000000000000000000000081526004016109db90613bd8565b60405180910390fd5b8073ffffffffffffffffffffffffffffffffffffffff16610a03611889565b73ffffffffffffffffffffffffffffffffffffffff161480610a325750610a3181610a2c611889565b6114e1565b5b610a71576040517f08c379a0000000000000000000000000000000000000000000000000000000008152600401610a6890613a58565b60405180910390fd5b610a7b8383611891565b505050565b610a91610a8b611889565b8261194a565b610ad0576040517f08c379a0000000000000000000000000000000000000000000000000000000008152600401610ac790613bf8565b60405180910390fd5b610adb838383611a28565b505050565b610afb838383604051806020016040528060008152506111de565b505050565b6000600860009054906101000a900460ff16905090565b6000806003600084815260200190815260200160002060009054906101000a900473ffffffffffffffffffffffffffffffffffffffff169050600073ffffffffffffffffffffffffffffffffffffffff168173ffffffffffffffffffffffffffffffffffffffff161415610bc0576040517f08c379a0000000000000000000000000000000000000000000000000000000008152600401610bb790613a98565b60405180910390fd5b80915050919050565b610bd281611c84565b610bdb81611d86565b7fbb98d0e6793b4923e62a28d1bb79d64b6a18936300671d24173fc725646bcd4c33600a60008481526020019081526020016000205483610c1b85611240565b604051610c2b94939291906138af565b60405180910390a150565b60008073ffffffffffffffffffffffffffffffffffffffff168273ffffffffffffffffffffffffffffffffffffffff161415610ca7576040517f08c379a0000000000000000000000000000000000000000000000000000000008152600401610c9e90613a78565b60405180910390fd5b600460008373ffffffffffffffffffffffffffffffffffffffff1673ffffffffffffffffffffffffffffffffffffffff168152602001908152602001600020549050919050565b610cf6611889565b73ffffffffffffffffffffffffffffffffffffffff16610d14610eef565b73ffffffffffffffffffffffffffffffffffffffff1614610d6a576040517f08c379a0000000000000000000000000000000000000000000000000000000008152600401610d6190613b58565b60405180910390fd5b610d746000611f4f565b565b610d7e611889565b73ffffffffffffffffffffffffffffffffffffffff16610d9c610eef565b73ffffffffffffffffffffffffffffffffffffffff1614610df2576040517f08c379a0000000000000000000000000000000000000000000000000000000008152600401610de990613b58565b60405180910390fd5b8073ffffffffffffffffffffffffffffffffffffffff16ff5b6000610e15611889565b73ffffffffffffffffffffffffffffffffffffffff16610e33610eef565b73ffffffffffffffffffffffffffffffffffffffff1614610e89576040517f08c379a0000000000000000000000000000000000000000000000000000000008152600401610e8090613b58565b60405180910390fd5b8173ffffffffffffffffffffffffffffffffffffffff166108fc479081150290604051600060405180830381858888f19350505050158015610ecf573d6000803e3d6000fd5b508173ffffffffffffffffffffffffffffffffffffffff16319050919050565b60008060009054906101000a900473ffffffffffffffffffffffffffffffffffffffff16905090565b606060028054610f2790613f2d565b80601f0160208091040260200160405190810160405280929190818152602001828054610f5390613f2d565b8015610fa05780601f10610f7557610100808354040283529160200191610fa0565b820191906000526020600020905b815481529060010190602001808311610f8357829003601f168201915b5050505050905090565b600d6020528060005260406000206000915054906101000a900460ff1681565b610fdc610fd5611889565b8383612013565b5050565b610fe8611889565b73ffffffffffffffffffffffffffffffffffffffff16611006610eef565b73ffffffffffffffffffffffffffffffffffffffff161461105c576040517f08c379a000000000000000000000000000000000000000000000000000000000815260040161105390613b58565b60405180910390fd5b611064612180565b565b6000611070610b00565b156110b0576040517f08c379a00000000000000000000000000000000000000000000000000000000081526004016110a790613a38565b60405180910390fd5b600060095490506110c13382612222565b6110cb8185612240565b82600a6000838152602001908152602001600020819055506110f960016009546122b490919063ffffffff16565b6009819055508091505092915050565b81338073ffffffffffffffffffffffffffffffffffffffff1661112b83610b17565b73ffffffffffffffffffffffffffffffffffffffff1614611181576040517f08c379a000000000000000000000000000000000000000000000000000000000815260040161117890613bb8565b60405180910390fd5b82600a6000868152602001908152602001600020819055507f1c796a1f0e72a2622b02269ab50e19623e96f80efeacd26bb98e7af2899cadc483856040516111ca929190613c53565b60405180910390a150505050565b600b5481565b6111ef6111e9611889565b8361194a565b61122e576040517f08c379a000000000000000000000000000000000000000000000000000000000815260040161122590613bf8565b60405180910390fd5b61123a848484846122ca565b50505050565b606061124b8261181d565b61128a576040517f08c379a000000000000000000000000000000000000000000000000000000000815260040161128190613b18565b60405180910390fd5b60006007600084815260200190815260200160002080546112aa90613f2d565b80601f01602080910402602001604051908101604052809291908181526020018280546112d690613f2d565b80156113235780601f106112f857610100808354040283529160200191611323565b820191906000526020600020905b81548152906001019060200180831161130657829003601f168201915b505050505090506000611334612326565b905060008151141561134a57819250505061138d565b60008251111561137f578082604051602001611367929190613824565b6040516020818303038152906040529250505061138d565b6113888461233d565b925050505b919050565b600061139c611889565b73ffffffffffffffffffffffffffffffffffffffff166113ba610eef565b73ffffffffffffffffffffffffffffffffffffffff1614611410576040517f08c379a000000000000000000000000000000000000000000000000000000000815260040161140790613b58565b60405180910390fd5b600c60009054906101000a900473ffffffffffffffffffffffffffffffffffffffff16905090565b60095481565b611446611889565b73ffffffffffffffffffffffffffffffffffffffff16611464610eef565b73ffffffffffffffffffffffffffffffffffffffff16146114ba576040517f08c379a00000000000000000000000000000000000000000000000000000000081526004016114b190613b58565b60405180910390fd5b6114c26123e4565b565b6000600a6000838152602001908152602001600020549050919050565b6000600660008473ffffffffffffffffffffffffffffffffffffffff1673ffffffffffffffffffffffffffffffffffffffff16815260200190815260200160002060008373ffffffffffffffffffffffffffffffffffffffff1673ffffffffffffffffffffffffffffffffffffffff16815260200190815260200160002060009054906101000a900460ff16905092915050565b61157d611889565b73ffffffffffffffffffffffffffffffffffffffff1661159b610eef565b73ffffffffffffffffffffffffffffffffffffffff16146115f1576040517f08c379a00000000000000000000000000000000000000000000000000000000081526004016115e890613b58565b60405180910390fd5b600073ffffffffffffffffffffffffffffffffffffffff168173ffffffffffffffffffffffffffffffffffffffff161415611661576040517f08c379a000000000000000000000000000000000000000000000000000000000815260040161165890613978565b60405180910390fd5b61166a81611f4f565b50565b611675611889565b73ffffffffffffffffffffffffffffffffffffffff16611693610eef565b73ffffffffffffffffffffffffffffffffffffffff16146116e9576040517f08c379a00000000000000000000000000000000000000000000000000000000081526004016116e090613b58565b60405180910390fd5b80600b8190555050565b6116fb611889565b73ffffffffffffffffffffffffffffffffffffffff16611719610eef565b73ffffffffffffffffffffffffffffffffffffffff161461176f576040517f08c379a000000000000000000000000000000000000000000000000000000000815260040161176690613b58565b60405180910390fd5b80600c60006101000a81548173ffffffffffffffffffffffffffffffffffffffff021916908373ffffffffffffffffffffffffffffffffffffffff16021790555050565b60007f01ffc9a7000000000000000000000000000000000000000000000000000000007bffffffffffffffffffffffffffffffffffffffffffffffffffffffff1916827bffffffffffffffffffffffffffffffffffffffffffffffffffffffff1916149050919050565b60008073ffffffffffffffffffffffffffffffffffffffff166003600084815260200190815260200160002060009054906101000a900473ffffffffffffffffffffffffffffffffffffffff1673ffffffffffffffffffffffffffffffffffffffff1614159050919050565b600033905090565b816005600083815260200190815260200160002060006101000a81548173ffffffffffffffffffffffffffffffffffffffff021916908373ffffffffffffffffffffffffffffffffffffffff160217905550808273ffffffffffffffffffffffffffffffffffffffff1661190483610b17565b73ffffffffffffffffffffffffffffffffffffffff167f8c5be1e5ebec7d5bd14f71427d1e84f3dd0314c0f7b2291e5b200ac8c7c3b92560405160405180910390a45050565b60006119558261181d565b611994576040517f08c379a000000000000000000000000000000000000000000000000000000000815260040161198b90613a18565b60405180910390fd5b600061199f83610b17565b90508073ffffffffffffffffffffffffffffffffffffffff168473ffffffffffffffffffffffffffffffffffffffff161480611a0e57508373ffffffffffffffffffffffffffffffffffffffff166119f6846108e3565b73ffffffffffffffffffffffffffffffffffffffff16145b80611a1f5750611a1e81856114e1565b5b91505092915050565b8273ffffffffffffffffffffffffffffffffffffffff16611a4882610b17565b73ffffffffffffffffffffffffffffffffffffffff1614611a9e576040517f08c379a0000000000000000000000000000000000000000000000000000000008152600401611a9590613b78565b60405180910390fd5b600073ffffffffffffffffffffffffffffffffffffffff168273ffffffffffffffffffffffffffffffffffffffff161415611b0e576040517f08c379a0000000000000000000000000000000000000000000000000000000008152600401611b05906139d8565b60405180910390fd5b611b19838383612487565b611b24600082611891565b6001600460008573ffffffffffffffffffffffffffffffffffffffff1673ffffffffffffffffffffffffffffffffffffffff1681526020019081526020016000206000828254611b749190613e31565b925050819055506001600460008473ffffffffffffffffffffffffffffffffffffffff1673ffffffffffffffffffffffffffffffffffffffff1681526020019081526020016000206000828254611bcb9190613d50565b92505081905550816003600083815260200190815260200160002060006101000a81548173ffffffffffffffffffffffffffffffffffffffff021916908373ffffffffffffffffffffffffffffffffffffffff160217905550808273ffffffffffffffffffffffffffffffffffffffff168473ffffffffffffffffffffffffffffffffffffffff167fddf252ad1be2c89b69c2b068fc378daa952ba7f163c4a11628f55a4df523b3ef60405160405180910390a4505050565b611c8d8161181d565b611ccc576040517f08c379a0000000000000000000000000000000000000000000000000000000008152600401611cc390613ad8565b60405180910390fd5b600d600082815260200190815260200160002060009054906101000a900460ff1615611d2d576040517f08c379a0000000000000000000000000000000000000000000000000000000008152600401611d2490613c18565b60405180910390fd5b600a600082815260200190815260200160002054341015611d83576040517f08c379a0000000000000000000000000000000000000000000000000000000008152600401611d7a906139b8565b60405180910390fd5b50565b6000611dae600a6000848152602001908152602001600020543461248c90919063ffffffff16565b90503373ffffffffffffffffffffffffffffffffffffffff166108fc829081150290604051600060405180830381858888f19350505050158015611df6573d6000803e3d6000fd5b506000611e0c823461248c90919063ffffffff16565b90506000611e386064611e2a600b54856124a290919063ffffffff16565b6124b890919063ffffffff16565b9050600c60009054906101000a900473ffffffffffffffffffffffffffffffffffffffff1673ffffffffffffffffffffffffffffffffffffffff166108fc829081150290604051600060405180830381858888f19350505050158015611ea2573d6000803e3d6000fd5b506000611eb8828461248c90919063ffffffff16565b9050611ec385610b17565b73ffffffffffffffffffffffffffffffffffffffff166108fc829081150290604051600060405180830381858888f19350505050158015611f08573d6000803e3d6000fd5b50611f1c611f1586610b17565b3387611a28565b6001600d600087815260200190815260200160002060006101000a81548160ff0219169083151502179055505050505050565b60008060009054906101000a900473ffffffffffffffffffffffffffffffffffffffff169050816000806101000a81548173ffffffffffffffffffffffffffffffffffffffff021916908373ffffffffffffffffffffffffffffffffffffffff1602179055508173ffffffffffffffffffffffffffffffffffffffff168173ffffffffffffffffffffffffffffffffffffffff167f8be0079c531659141344cd1fd0a4f28419497f9722a3daafe3b4186f6b6457e060405160405180910390a35050565b8173ffffffffffffffffffffffffffffffffffffffff168373ffffffffffffffffffffffffffffffffffffffff161415612082576040517f08c379a0000000000000000000000000000000000000000000000000000000008152600401612079906139f8565b60405180910390fd5b80600660008573ffffffffffffffffffffffffffffffffffffffff1673ffffffffffffffffffffffffffffffffffffffff16815260200190815260200160002060008473ffffffffffffffffffffffffffffffffffffffff1673ffffffffffffffffffffffffffffffffffffffff16815260200190815260200160002060006101000a81548160ff0219169083151502179055508173ffffffffffffffffffffffffffffffffffffffff168373ffffffffffffffffffffffffffffffffffffffff167f17307eab39ab6107e8899845ad3d59bd9653f200f220920489ca2b5937696c318360405161217391906138fb565b60405180910390a3505050565b612188610b00565b6121c7576040517f08c379a00000000000000000000000000000000000000000000000000000000081526004016121be90613938565b60405180910390fd5b6000600860006101000a81548160ff0219169083151502179055507f5db9ee0a495bf2e6ff9c91a7834c1ba4fdd244a5e8aa4e537bd38aeae4b073aa61220b611889565b6040516122189190613848565b60405180910390a1565b61223c8282604051806020016040528060008152506124ce565b5050565b6122498261181d565b612288576040517f08c379a000000000000000000000000000000000000000000000000000000000815260040161227f90613ab8565b60405180910390fd5b806007600084815260200190815260200160002090805190602001906122af929190612a4e565b505050565b600081836122c29190613d50565b905092915050565b6122d5848484611a28565b6122e184848484612529565b612320576040517f08c379a000000000000000000000000000000000000000000000000000000000815260040161231790613958565b60405180910390fd5b50505050565b606060405180602001604052806000815250905090565b60606123488261181d565b612387576040517f08c379a000000000000000000000000000000000000000000000000000000000815260040161237e90613b98565b60405180910390fd5b6000612391612326565b905060008151116123b157604051806020016040528060008152506123dc565b806123bb846126c0565b6040516020016123cc929190613824565b6040516020818303038152906040525b915050919050565b6123ec610b00565b1561242c576040517f08c379a000000000000000000000000000000000000000000000000000000000815260040161242390613a38565b60405180910390fd5b6001600860006101000a81548160ff0219169083151502179055507f62e78cea01bee320cd4e420270b5ea74000d11b0c9f74754ebdbfc544b05a258612470611889565b60405161247d9190613848565b60405180910390a1565b505050565b6000818361249a9190613e31565b905092915050565b600081836124b09190613dd7565b905092915050565b600081836124c69190613da6565b905092915050565b6124d8838361286d565b6124e56000848484612529565b612524576040517f08c379a000000000000000000000000000000000000000000000000000000000815260040161251b90613958565b60405180910390fd5b505050565b600061254a8473ffffffffffffffffffffffffffffffffffffffff16612a3b565b156126b3578373ffffffffffffffffffffffffffffffffffffffff1663150b7a02612573611889565b8786866040518563ffffffff1660e01b81526004016125959493929190613863565b602060405180830381600087803b1580156125af57600080fd5b505af19250505080156125e057506040513d601f19601f820116820180604052508101906125dd9190612e38565b60015b612663573d8060008114612610576040519150601f19603f3d011682016040523d82523d6000602084013e612615565b606091505b5060008151141561265b576040517f08c379a000000000000000000000000000000000000000000000000000000000815260040161265290613958565b60405180910390fd5b805181602001fd5b63150b7a0260e01b7bffffffffffffffffffffffffffffffffffffffffffffffffffffffff1916817bffffffffffffffffffffffffffffffffffffffffffffffffffffffff1916149150506126b8565b600190505b949350505050565b60606000821415612708576040518060400160405280600181526020017f30000000000000000000000000000000000000000000000000000000000000008152509050612868565b600082905060005b6000821461273a57808061272390613f5f565b915050600a826127339190613da6565b9150612710565b60008167ffffffffffffffff81111561277c577f4e487b7100000000000000000000000000000000000000000000000000000000600052604160045260246000fd5b6040519080825280601f01601f1916602001820160405280156127ae5781602001600182028036833780820191505090505b5090505b60008514612861576001826127c79190613e31565b9150600a856127d69190613fa8565b60306127e29190613d50565b60f81b81838151811061281e577f4e487b7100000000000000000000000000000000000000000000000000000000600052603260045260246000fd5b60200101907effffffffffffffffffffffffffffffffffffffffffffffffffffffffffffff1916908160001a905350600a8561285a9190613da6565b94506127b2565b8093505050505b919050565b600073ffffffffffffffffffffffffffffffffffffffff168273ffffffffffffffffffffffffffffffffffffffff1614156128dd576040517f08c379a00000000000000000000000000000000000000000000000000000000081526004016128d490613af8565b60405180910390fd5b6128e68161181d565b15612926576040517f08c379a000000000000000000000000000000000000000000000000000000000815260040161291d90613998565b60405180910390fd5b61293260008383612487565b6001600460008473ffffffffffffffffffffffffffffffffffffffff1673ffffffffffffffffffffffffffffffffffffffff16815260200190815260200160002060008282546129829190613d50565b92505081905550816003600083815260200190815260200160002060006101000a81548173ffffffffffffffffffffffffffffffffffffffff021916908373ffffffffffffffffffffffffffffffffffffffff160217905550808273ffffffffffffffffffffffffffffffffffffffff16600073ffffffffffffffffffffffffffffffffffffffff167fddf252ad1be2c89b69c2b068fc378daa952ba7f163c4a11628f55a4df523b3ef60405160405180910390a45050565b600080823b905060008111915050919050565b828054612a5a90613f2d565b90600052602060002090601f016020900481019282612a7c5760008555612ac3565b82601f10612a9557805160ff1916838001178555612ac3565b82800160010185558215612ac3579182015b82811115612ac2578251825591602001919060010190612aa7565b5b509050612ad09190612ad4565b5090565b5b80821115612aed576000816000905550600101612ad5565b5090565b6000612b04612aff84613cad565b613c7c565b905082815260208101848484011115612b1c57600080fd5b612b27848285613eeb565b509392505050565b6000612b42612b3d84613cdd565b613c7c565b905082815260208101848484011115612b5a57600080fd5b612b65848285613eeb565b509392505050565b600081359050612b7c816140a6565b92915050565b600081359050612b91816140bd565b92915050565b600081359050612ba6816140d4565b92915050565b600081359050612bbb816140eb565b92915050565b600081519050612bd0816140eb565b92915050565b600082601f830112612be757600080fd5b8135612bf7848260208601612af1565b91505092915050565b600082601f830112612c1157600080fd5b8135612c21848260208601612b2f565b91505092915050565b600081359050612c3981614102565b92915050565b600060208284031215612c5157600080fd5b6000612c5f84828501612b6d565b91505092915050565b600060208284031215612c7a57600080fd5b6000612c8884828501612b82565b91505092915050565b60008060408385031215612ca457600080fd5b6000612cb285828601612b6d565b9250506020612cc385828601612b6d565b9150509250929050565b600080600060608486031215612ce257600080fd5b6000612cf086828701612b6d565b9350506020612d0186828701612b6d565b9250506040612d1286828701612c2a565b9150509250925092565b60008060008060808587031215612d3257600080fd5b6000612d4087828801612b6d565b9450506020612d5187828801612b6d565b9350506040612d6287828801612c2a565b925050606085013567ffffffffffffffff811115612d7f57600080fd5b612d8b87828801612bd6565b91505092959194509250565b60008060408385031215612daa57600080fd5b6000612db885828601612b6d565b9250506020612dc985828601612b97565b9150509250929050565b60008060408385031215612de657600080fd5b6000612df485828601612b6d565b9250506020612e0585828601612c2a565b9150509250929050565b600060208284031215612e2157600080fd5b6000612e2f84828501612bac565b91505092915050565b600060208284031215612e4a57600080fd5b6000612e5884828501612bc1565b91505092915050565b60008060408385031215612e7457600080fd5b600083013567ffffffffffffffff811115612e8e57600080fd5b612e9a85828601612c00565b9250506020612eab85828601612c2a565b9150509250929050565b600060208284031215612ec757600080fd5b6000612ed584828501612c2a565b91505092915050565b60008060408385031215612ef157600080fd5b6000612eff85828601612c2a565b9250506020612f1085828601612c2a565b9150509250929050565b612f2381613e65565b82525050565b612f3281613e89565b82525050565b6000612f4382613d0d565b612f4d8185613d23565b9350612f5d818560208601613efa565b612f6681614095565b840191505092915050565b6000612f7c82613d18565b612f868185613d34565b9350612f96818560208601613efa565b612f9f81614095565b840191505092915050565b6000612fb582613d18565b612fbf8185613d45565b9350612fcf818560208601613efa565b80840191505092915050565b6000612fe8601483613d34565b91507f5061757361626c653a206e6f74207061757365640000000000000000000000006000830152602082019050919050565b6000613028603283613d34565b91507f4552433732313a207472616e7366657220746f206e6f6e20455243373231526560008301527f63656976657220696d706c656d656e74657200000000000000000000000000006020830152604082019050919050565b600061308e602683613d34565b91507f4f776e61626c653a206e6577206f776e657220697320746865207a65726f206160008301527f64647265737300000000000000000000000000000000000000000000000000006020830152604082019050919050565b60006130f4601c83613d34565b91507f4552433732313a20746f6b656e20616c7265616479206d696e746564000000006000830152602082019050919050565b6000613134600e83613d34565b91507f496e76616c696420416d6f756e740000000000000000000000000000000000006000830152602082019050919050565b6000613174602483613d34565b91507f4552433732313a207472616e7366657220746f20746865207a65726f2061646460008301527f72657373000000000000000000000000000000000000000000000000000000006020830152604082019050919050565b60006131da601983613d34565b91507f4552433732313a20617070726f766520746f2063616c6c6572000000000000006000830152602082019050919050565b600061321a602c83613d34565b91507f4552433732313a206f70657261746f7220717565727920666f72206e6f6e657860008301527f697374656e7420746f6b656e00000000000000000000000000000000000000006020830152604082019050919050565b6000613280601083613d34565b91507f5061757361626c653a20706175736564000000000000000000000000000000006000830152602082019050919050565b60006132c0603883613d34565b91507f4552433732313a20617070726f76652063616c6c6572206973206e6f74206f7760008301527f6e6572206e6f7220617070726f76656420666f7220616c6c00000000000000006020830152604082019050919050565b6000613326602a83613d34565b91507f4552433732313a2062616c616e636520717565727920666f7220746865207a6560008301527f726f2061646472657373000000000000000000000000000000000000000000006020830152604082019050919050565b600061338c602983613d34565b91507f4552433732313a206f776e657220717565727920666f72206e6f6e657869737460008301527f656e7420746f6b656e00000000000000000000000000000000000000000000006020830152604082019050919050565b60006133f2602e83613d34565b91507f45524337323155524953746f726167653a2055524920736574206f66206e6f6e60008301527f6578697374656e7420746f6b656e0000000000000000000000000000000000006020830152604082019050919050565b6000613458601783613d34565b91507f4572726f723a20496e76616c696420546f6b656e2049440000000000000000006000830152602082019050919050565b6000613498602083613d34565b91507f4552433732313a206d696e7420746f20746865207a65726f20616464726573736000830152602082019050919050565b60006134d8603183613d34565b91507f45524337323155524953746f726167653a2055524920717565727920666f722060008301527f6e6f6e6578697374656e7420746f6b656e0000000000000000000000000000006020830152604082019050919050565b600061353e602c83613d34565b91507f4552433732313a20617070726f76656420717565727920666f72206e6f6e657860008301527f697374656e7420746f6b656e00000000000000000000000000000000000000006020830152604082019050919050565b60006135a4602083613d34565b91507f4f776e61626c653a2063616c6c6572206973206e6f7420746865206f776e65726000830152602082019050919050565b60006135e4602983613d34565b91507f4552433732313a207472616e73666572206f6620746f6b656e2074686174206960008301527f73206e6f74206f776e00000000000000000000000000000000000000000000006020830152604082019050919050565b600061364a602f83613d34565b91507f4552433732314d657461646174613a2055524920717565727920666f72206e6f60008301527f6e6578697374656e7420746f6b656e00000000000000000000000000000000006020830152604082019050919050565b60006136b0602e83613d34565b91507f4572726f72203a204f6e6c79204f776e6572206f66204e46542063616e20636860008301527f616e6765204e46542070726963650000000000000000000000000000000000006020830152604082019050919050565b6000613716602183613d34565b91507f4552433732313a20617070726f76616c20746f2063757272656e74206f776e6560008301527f72000000000000000000000000000000000000000000000000000000000000006020830152604082019050919050565b600061377c603183613d34565b91507f4552433732313a207472616e736665722063616c6c6572206973206e6f74206f60008301527f776e6572206e6f7220617070726f7665640000000000000000000000000000006020830152604082019050919050565b60006137e2601a83613d34565b91507f536f7272793a20546f6b656e20686173206265656e20736f6c640000000000006000830152602082019050919050565b61381e81613ee1565b82525050565b60006138308285612faa565b915061383c8284612faa565b91508190509392505050565b600060208201905061385d6000830184612f1a565b92915050565b60006080820190506138786000830187612f1a565b6138856020830186612f1a565b6138926040830185613815565b81810360608301526138a48184612f38565b905095945050505050565b60006080820190506138c46000830187612f1a565b6138d16020830186613815565b6138de6040830185613815565b81810360608301526138f08184612f71565b905095945050505050565b60006020820190506139106000830184612f29565b92915050565b600060208201905081810360008301526139308184612f71565b905092915050565b6000602082019050818103600083015261395181612fdb565b9050919050565b600060208201905081810360008301526139718161301b565b9050919050565b6000602082019050818103600083015261399181613081565b9050919050565b600060208201905081810360008301526139b1816130e7565b9050919050565b600060208201905081810360008301526139d181613127565b9050919050565b600060208201905081810360008301526139f181613167565b9050919050565b60006020820190508181036000830152613a11816131cd565b9050919050565b60006020820190508181036000830152613a318161320d565b9050919050565b60006020820190508181036000830152613a5181613273565b9050919050565b60006020820190508181036000830152613a71816132b3565b9050919050565b60006020820190508181036000830152613a9181613319565b9050919050565b60006020820190508181036000830152613ab18161337f565b9050919050565b60006020820190508181036000830152613ad1816133e5565b9050919050565b60006020820190508181036000830152613af18161344b565b9050919050565b60006020820190508181036000830152613b118161348b565b9050919050565b60006020820190508181036000830152613b31816134cb565b9050919050565b60006020820190508181036000830152613b5181613531565b9050919050565b60006020820190508181036000830152613b7181613597565b9050919050565b60006020820190508181036000830152613b91816135d7565b9050919050565b60006020820190508181036000830152613bb18161363d565b9050919050565b60006020820190508181036000830152613bd1816136a3565b9050919050565b60006020820190508181036000830152613bf181613709565b9050919050565b60006020820190508181036000830152613c118161376f565b9050919050565b60006020820190508181036000830152613c31816137d5565b9050919050565b6000602082019050613c4d6000830184613815565b92915050565b6000604082019050613c686000830185613815565b613c756020830184613815565b9392505050565b6000604051905081810181811067ffffffffffffffff82111715613ca357613ca2614066565b5b8060405250919050565b600067ffffffffffffffff821115613cc857613cc7614066565b5b601f19601f8301169050602081019050919050565b600067ffffffffffffffff821115613cf857613cf7614066565b5b601f19601f8301169050602081019050919050565b600081519050919050565b600081519050919050565b600082825260208201905092915050565b600082825260208201905092915050565b600081905092915050565b6000613d5b82613ee1565b9150613d6683613ee1565b9250827fffffffffffffffffffffffffffffffffffffffffffffffffffffffffffffffff03821115613d9b57613d9a613fd9565b5b828201905092915050565b6000613db182613ee1565b9150613dbc83613ee1565b925082613dcc57613dcb614008565b5b828204905092915050565b6000613de282613ee1565b9150613ded83613ee1565b9250817fffffffffffffffffffffffffffffffffffffffffffffffffffffffffffffffff0483118215151615613e2657613e25613fd9565b5b828202905092915050565b6000613e3c82613ee1565b9150613e4783613ee1565b925082821015613e5a57613e59613fd9565b5b828203905092915050565b6000613e7082613ec1565b9050919050565b6000613e8282613ec1565b9050919050565b60008115159050919050565b60007fffffffff0000000000000000000000000000000000000000000000000000000082169050919050565b600073ffffffffffffffffffffffffffffffffffffffff82169050919050565b6000819050919050565b82818337600083830152505050565b60005b83811015613f18578082015181840152602081019050613efd565b83811115613f27576000848401525b50505050565b60006002820490506001821680613f4557607f821691505b60208210811415613f5957613f58614037565b5b50919050565b6000613f6a82613ee1565b91507fffffffffffffffffffffffffffffffffffffffffffffffffffffffffffffffff821415613f9d57613f9c613fd9565b5b600182019050919050565b6000613fb382613ee1565b9150613fbe83613ee1565b925082613fce57613fcd614008565b5b828206905092915050565b7f4e487b7100000000000000000000000000000000000000000000000000000000600052601160045260246000fd5b7f4e487b7100000000000000000000000000000000000000000000000000000000600052601260045260246000fd5b7f4e487b7100000000000000000000000000000000000000000000000000000000600052602260045260246000fd5b7f4e487b7100000000000000000000000000000000000000000000000000000000600052604160045260246000fd5b6000601f19601f8301169050919050565b6140af81613e65565b81146140ba57600080fd5b50565b6140c681613e77565b81146140d157600080fd5b50565b6140dd81613e89565b81146140e857600080fd5b50565b6140f481613e95565b81146140ff57600080fd5b50565b61410b81613ee1565b811461411657600080fd5b5056fea26469706673582212205dd3acf2171f67907acc6500b321284a618378c266baf280d8a839a3c3e2d1ba64736f6c63430008000033",
  "linkReferences": {},
  "deployedLinkReferences": {}
}